:020000040000FA
:1000000000008A110A12822E83120313BD007F089A
:10001000BE00BF0105303D0203181F2900308312C6
:1000200003138A001C30831203133D07031C1B2893
:10003000831203138A0A8200212854288728BA28A9
:10004000ED28003083120313C0000130BD003E08CC
:10005000003C0319322883120313BD0DC00D013E6D
:10006000031C2B2883160313050883120313C100F6
:10007000C2014108BD050030C0054008C2003D086E
:10008000C1003E08003C03194F28031083120313DC
:10009000C21B0314C20CC10C013E031C4528831271
:1000A00003134108BF001F29003083120313C0004F
:1000B0000130BD003E08003C03196528831203137C
:1000C000BD0DC00D013E031C5E28831603130608F8
:1000D00083120313C100C2014108BD050030C005F1
:1000E0004008C2003D08C1003E08003C03198228B8
:1000F000031083120313C21B0314C20CC10C013E74
:10010000031C7828831203134108BF001F29003005
:1001100083120313C0000130BD003E08003C0319E8
:10012000982883120313BD0DC00D013E031C9128B6
:1001300083160313070883120313C100C201410889
:10014000BD050030C0054008C2003D08C1003E08A2
:10015000003C0319B528031083120313C21B0314B8
:10016000C20CC10C013E031CAB28831203134108CF
:10017000BF001F29003083120313C0000130BD00EF
:100180003E08003C0319CB2883120313BD0DC00D9C
:10019000013E031CC42883160313080883120313AB
:1001A000C100C2014108BD050030C0054008C200C1
:1001B0003D08C1003E08003C0319E82803108312E3
:1001C0000313C21B0314C20CC10C013E031CDE2826
:1001D000831203134108BF001F2900308312031349
:1001E000C0000130BD003E08003C0319FE28831208
:1001F0000313BD0DC00D013E031CF7288316031326
:10020000090883120313C100C2014108BD05003073
:10021000C0054008C2003D08C1003E08003C03196B
:100220001B29031083120313C21B0314C20CC10C3D
:10023000013E031C1129831203134108BF008312DE
:1002400003133F08080083120313B7007F08B800A8
:10025000B9010530370203183E2A01308312031317
:100260008A003B30831203133707031C3A29831299
:1002700003138A0A820040297329A629D9290C2A46
:10028000003083120313BA000130B7003808003C75
:100290000319512983120313B70DBA0D013E031C34
:1002A0004A2983120313050883120313BB00BC0100
:1002B0003B08B7050030BA053A08BC003708BB0058
:1002C0003808003C03196E29031083120313BC1B6A
:1002D0000314BC0CBB0C013E031C642983120313E2
:1002E0003B08B9003E2A003083120313BA000130E4
:1002F000B7003808003C0319842983120313B70D93
:10030000BA0D013E031C7D298312031306088312D4
:100310000313BB00BC013B08B7050030BA053A081F
:10032000BC003708BB003808003C0319A1290310A2
:1003300083120313BC1B0314BC0CBB0C013E031C37
:100340009729831203133B08B9003E2A0030831219
:100350000313BA000130B7003808003C0319B7296D
:1003600083120313B70DBA0D013E031CB02983128B
:100370000313070883120313BB00BC013B08B70536
:100380000030BA053A08BC003708BB003808003C0A
:100390000319D429031083120313BC1B0314BC0CD0
:1003A000BB0C013E031CCA29831203133B08B9008E
:1003B0003E2A003083120313BA000130B700380818
:1003C000003C0319EA2983120313B70DBA0D013E4D
:1003D000031CE32983120313080883120313BB00D1
:1003E000BC013B08B7050030BA053A08BC00370825
:1003F000BB003808003C0319072A031083120313BB
:10040000BC1B0314BC0CBB0C013E031CFD29831256
:1004100003133B08B9003E2A003083120313BA00CD
:100420000130B7003808003C03191D2A831203135A
:10043000B70DBA0D013E031C162A831203130908D7
:1004400083120313BB00BC013B08B7050030BA059B
:100450003A08BC003708BB003808003C03193A2AA8
:10046000031083120313BC1B0314BC0CBB0C013E12
:10047000031C302A831203133B08B90083120313B1
:100480003908080083120313B500B60105303502A0
:1004900003187F2A0230831203138A005830831214
:1004A00003133507031C572A831203138A0A820099
:1004B0005D2A642A6B2A722A792A83160313050897
:1004C00083120313B6007F2A8316031306088312D0
:1004D0000313B6007F2A831603130708831203133E
:1004E000B6007F2A83160313080883120313B6008D
:1004F0007F2A83160313090883120313B60083129D
:1005000003133608080083120313B300B401053047
:1005100033020318C02A0230831203138A00993071
:10052000831203133307031C982A831203138A0AC6
:1005300082009E2AA52AAC2AB32ABA2A8312031360
:10054000050883120313B400C02A8312031306089C
:1005500083120313B400C02A831203130708831203
:100560000313B400C02A8312031308088312031371
:10057000B400C02A83120313090883120313B400C2
:10058000831203133408080083120313AF007F089B
:10059000B0007E08B10005302F020318B82B0230DE
:1005A000831203138A00DD30831203132F07031C09
:1005B000DC2A831203138A0A8200E22A0D2B382BCD
:1005C000632B8E2B013083120313AF003008003CE5
:1005D0000319F02A83120313AF0D013E031CEA2A0C
:1005E00083120313AF098316031305088312031341
:1005F000AF053108B2003008003C0319052B831207
:100600000313B20D013E031CFF2A831203133208A9
:100610002F04831603138500B82B013083120313B4
:10062000AF003008003C03191B2B83120313AF0DDE
:10063000013E031C152B83120313AF09831603130A
:10064000060883120313AF053108B2003008003CDE
:100650000319302B83120313B20D013E031C2A2B06
:100660008312031332082F04831603138600B82B5A
:10067000013083120313AF003008003C0319462BEE
:1006800083120313AF0D013E031C402B831203138F
:10069000AF0983160313070883120313AF0531084C
:1006A000B2003008003C03195B2B83120313B20D18
:1006B000013E031C552B8312031332082F048316AB
:1006C00003138700B82B013083120313AF003008E7
:1006D000003C0319712B83120313AF0D013E031C61
:1006E0006B2B83120313AF098316031308088312BD
:1006F0000313AF053108B2003008003C0319862B04
:1007000083120313B20D013E031C802B83120313CB
:1007100032082F04831603138800B82B013083128C
:100720000313AF003008003C03199C2B8312031302
:10073000AF0D013E031C962B83120313AF098316E2
:100740000313090883120313AF053108B200300800
:10075000003C0319B12B83120313B20D013E031C9D
:10076000AB2B8312031332082F0483160313890063
:10077000080083120313AB007F08AC007E08AD00B5
:1007800005302B020318AD2C0330831203138A00AB
:10079000D230831203132B07031CD12B83120313B4
:1007A0008A0A8200D72B022C2D2C582C832C013046
:1007B00083120313AB002C08003C0319E52B8312B2
:1007C0000313AB0D013E031CDF2B83120313AB0994
:1007D00083120313050883120313AB052D08AE0023
:1007E0002C08003C0319FA2B83120313AE0D013EB3
:1007F000031CF42B831203132E082B048312031300
:100800008500AD2C013083120313AB002C08003C93
:100810000319102C83120313AB0D013E031C0A2C89
:1008200083120313AB098312031306088312031305
:10083000AB052D08AE002C08003C0319252C8312B3
:100840000313AE0D013E031C1F2C831203132E084D
:100850002B04831203138600AD2C01308312031383
:10086000AB002C08003C03193B2C83120313AB0D87
:10087000013E031C352C83120313AB0983120313AF
:10088000070883120313AB052D08AE002C08003CAB
:100890000319502C83120313AE0D013E031C4A2C86
:1008A000831203132E082B04831203138700AD2C2D
:1008B000013083120313AB002C08003C0319662C93
:1008C00083120313AB0D013E031C602C8312031330
:1008D000AB0983120313080883120313AB052D0819
:1008E000AE002C08003C03197B2C83120313AE0DC1
:1008F000013E031C752C831203132E082B04831254
:1009000003138800AD2C013083120313AB002C08B5
:10091000003C0319912C83120313AB0D013E031C01
:100920008B2C83120313AB09831203130908831260
:100930000313AB052D08AE002C08003C0319A62CB0
:1009400083120313AE0D013E031CA02C831203136C
:100950002E082B048312031389000800831203134B
:10096000A9007F08AA00053029020318EC2C0430E6
:10097000831203138A00C530831203132907031C53
:10098000C42C831203138A0A8200CA2CD12CD82CBF
:10099000DF2CE62C831203132A0883160313850029
:1009A000EC2C831203132A08831603138600EC2C05
:1009B000831203132A08831603138700EC2C831277
:1009C00003132A08831603138800EC2C83120313E5
:1009D0002A08831603138900080083120313A70053
:1009E0007F08A8000530270203182B2D053083123D
:1009F00003138A000430831203132707031C032DFB
:100A0000831203138A0A8200092D102D172D1E2D23
:100A1000252D8312031328088312031385002B2D21
:100A20008312031328088312031386002B2D8312CD
:100A3000031328088312031387002B2D831203133B
:100A400028088312031388002B2D83120313280810
:100A5000831203138900080008000800831203139F
:100A6000A3007F08A4007E08A5007D08A600250835
:100A7000FE002408FF0023088A110A12C4228A11EA
:100A80000A12831203132608FE002408FF0023081D
:100A90008A110A12B9238A110A1208008312031359
:100AA000A0007F08A1007E08A2002108FF00200806
:100AB0008A110A12AE248A110A1283120313220821
:100AC000FF0020088A110A12ED248A110A12080078
:100AD00083120313D400C32583120313D5005508D2
:100AE000031D772D0130FF00540810267D2D0030A6
:100AF000FF00831203135408102608008312031307
:100B0000D300043053020318C22D0530831203139F
:100B10008A009330831203135307031C922D831210
:100B200003138A0A8200972DA22DAD2DB82D003017
:100B3000FE000030FF0001308A110A12C4228A111F
:100B40000A12C22D0030FE000130FF0001308A1170
:100B50000A12C4228A110A12C22D0030FE0002308D
:100B6000FF0001308A110A12C4228A110A12C22D12
:100B70000030FE000330FF0001308A110A12C42247
:100B80008A110A12080083120313D100D201043023
:100B9000510203180C2E0530831203138A00D9303A
:100BA000831203135107031CD82D831203138A0ADF
:100BB0008200DD2DE92DF52D012E0030FF000130E2
:100BC0008A110A1223218A110A1283120313D200F6
:100BD0000C2E0130FF0001308A110A1223218A11E4
:100BE0000A1283120313D2000C2E0230FF000130D0
:100BF0008A110A1223218A110A1283120313D200C6
:100C00000C2E0330FF0001308A110A1223218A11B1
:100C10000A1283120313D20083120313520808002E
:100C200083120313D1007F08D2000430510203184D
:100C30005E2E0630831203138A00273083120313BB
:100C40005107031C262E831203138A0A82002B2EBF
:100C5000382E452E522E831203135208FE00003008
:100C6000FF0001308A110A12B9238A110A125E2E7E
:100C7000831203135208FE000130FF0001308A1175
:100C80000A12B9238A110A125E2E83120313520824
:100C9000FE000230FF0001308A110A12B9238A11C6
:100CA0000A125E2E831203135208FE000330FF0067
:100CB00001308A110A12B9238A110A120800003081
:100CC0006825013068250230682503306825A0308A
:100CD000FF0086308A110A1279278A110A12080049
:100CE00083120313CF007F08D0004F087E258312A4
:100CF00003135008FF004F088A110A1210268A11A8
:100D00000A1208008E30FE000730FF0080308A1182
:100D10000A1231278A110A1283120313C4007F08B2
:100D2000C3009030C5000730C60083120313430888
:100D3000C7004408C800FF30C307031CC4034708AA
:100D4000480403191A2F04304507C700C801C80D0D
:100D50004608C8074708FE004808FF0080308A118F
:100D60000A1231278A110A1283120313CA007F085C
:100D7000C9004508FE004608FF0080308A110A12AB
:100D800031278A110A1283120313CC00C8007F088E
:100D9000CB00C70002304507C700C801C80D460890
:100DA000C8074708FE004808FF0080308A110A1271
:100DB00031278A110A1283120313C800CE007F085C
:100DC000C700CD00831203134908CD004A08CE00A6
:100DD000FF30C907031CCA034D084E040319132F23
:100DE0004B08FE004C08FF0080308A110A121E27B3
:100DF0008A110A1283120313CD00470883120313CA
:100E00008400831383120313481883174D08831239
:100E10000313800083120313CB0A0319CC0AC70AF9
:100E20000319C80AE22E063083120313C5070318FC
:100E3000C60A952E8A110A12522F0800003A031989
:100E4000252F803A03192C2F00347E088400831349
:100E50007F188317000808007F088A007E08820038
:100E60000800003A0319392F803A0319432FFF0174
:100E700000347E08840083137F1883170008FF0066
:100E8000840A000808008A110A122C27FD00FE0FB0
:100E9000FF03FF0A8A110A122C27FC007D08FF00BD
:100EA0007C0808000130FF0000308A110A12702609
:100EB0008A110A120130FF0001308A110A127026CD
:100EC0008A110A120130FF0002308A110A127026BC
:100ED0008A110A120130FF0003308A110A127026AB
:100EE0008A110A128A110A125F268A110A12722FB7
:100EF000080083120313D7007F08D600D801D90158
:100F000083120313D80A0319D90A59085702031D7B
:100F10008B2F580856020318802F08000134003424
:0E0F2000963407345A3400340134003400345F
:02400E00323F3F
:00000001FF
