:100000000C942A000C9434000C9434000C943400AA
:100010000C9434000C9434000C9434000C94340090
:100020000C9434000C9434000C9434000C94340080
:100030000C9434000C9434000C9434000C94340070
:100040000C9434000C9434000C9434000C94340060
:100050000C94340011241FBECFE5D8E0DEBFCDBF25
:100060000E9436000C94A0050C940000DF93CF93FF
:10007000CDB7DEB780E061E00E94620481E061E01C
:100080000E94620482E061E00E94620483E061E019
:100090000E9462040E947504FDCFDF93CF9300D0CD
:1000A0000F92CDB7DEB789836A834B8389816A81DA
:1000B0000E94CE0089816B810E948D000F900F906D
:1000C0000F90CF91DF910895DF93CF9300D000D0B0
:1000D000CDB7DEB789836A834B832C8389816A819C
:1000E0004B810E94CA0189816A814C810E940F0163
:1000F0000F900F900F900F90CF91DF910895DF93A5
:10010000CF93CDB7DEB7CF91DF910895DF93CF9333
:10011000CDB7DEB7CF91DF910895DF93CF9300D0B5
:1001200000D0CDB7DEB789836A838981282F30E07C
:100130003C832B838B819C8181309105D1F02B8175
:100140003C81223031052CF48B819C81009761F039
:100150001EC02B813C812230310581F08B819C8136
:100160008330910581F013C0EBE3F0E08A81808356
:100170000EC0E8E3F0E08A81808309C0E5E3F0E0A7
:100180008A81808304C0E2E3F0E08A8180830F905B
:100190000F900F900F90CF91DF910895DF93CF9341
:1001A00000D000D0CDB7DEB789836A838981282F3C
:1001B00030E03C832B838B819C8181309105D1F091
:1001C0002B813C81223031052CF48B819C8100975E
:1001D00061F01EC02B813C812230310581F08B8182
:1001E0009C818330910581F013C0EAE3F0E08A81BD
:1001F00080830EC0E7E3F0E08A81808309C0E1E3F9
:10020000F0E08A81808304C0E1E3F0E08A818083AA
:100210000F900F900F900F90CF91DF910895DF9383
:10022000CF9300D000D00F92CDB7DEB789836A8319
:100230004B838981282F30E03D832C836C817D8125
:1002400061307105D1F18C819D818230910534F44A
:100250002C813D812115310571F094C06C817D8127
:100260006230710509F44BC08C819D81833091050A
:1002700009F467C087C0ABE3B0E0EBE3F0E0808156
:10028000482F8A81282F30E081E090E002C0880F5B
:10029000991F2A95E2F7809548238B81282F30E01B
:1002A0008A81882F90E0B90102C0660F771F8A9576
:1002B000E2F7CB01842B8C9365C0A8E3B0E0E8E3C0
:1002C000F0E08081482F8A81282F30E081E090E0A3
:1002D00002C0880F991F2A95E2F7809548238B81E9
:1002E000282F30E08A81882F90E0B90102C0660F84
:1002F000771F8A95E2F7CB01842B8C9343C0A5E34B
:10030000B0E0E5E3F0E08081482F8A81282F30E0DB
:1003100081E090E002C0880F991F2A95E2F780954E
:1003200048238B81282F30E08A81882F90E0B90103
:1003300002C0660F771F8A95E2F7CB01842B8C935E
:1003400021C0A2E3B0E0E2E3F0E08081482F8A819F
:10035000282F30E081E090E002C0880F991F2A9595
:10036000E2F7809548238B81282F30E08A81882FFF
:1003700090E0B90102C0660F771F8A95E2F7CB01C2
:10038000842B8C930F900F900F900F900F90CF9124
:10039000DF910895DF93CF9300D000D00F92CDB7B7
:1003A000DEB789836A834B838981282F30E03D83C0
:1003B0002C836C817D8161307105D1F18C819D81AF
:1003C0008230910534F42C813D812115310571F085
:1003D00094C06C817D816230710509F44BC08C81C1
:1003E0009D818330910509F467C087C0AAE3B0E01E
:1003F000EAE3F0E08081482F8A81282F30E081E015
:1004000090E002C0880F991F2A95E2F78095482353
:100410008B81282F30E08A81882F90E0B90102C0BB
:10042000660F771F8A95E2F7CB01842B8C9365C00A
:10043000A7E3B0E0E7E3F0E08081482F8A81282F2E
:1004400030E081E090E002C0880F991F2A95E2F722
:10045000809548238B81282F30E08A81882F90E077
:10046000B90102C0660F771F8A95E2F7CB01842B92
:100470008C9343C0A4E3B0E0E4E3F0E08081482F34
:100480008A81282F30E081E090E002C0880F991F18
:100490002A95E2F7809548238B81282F30E08A81C6
:1004A000882F90E0B90102C0660F771F8A95E2F7A6
:1004B000CB01842B8C9321C0A1E3B0E0E1E3F0E019
:1004C0008081482F8A81282F30E081E090E002C0AF
:1004D000880F991F2A95E2F7809548238B81282F52
:1004E00030E08A81882F90E0B90102C0660F771F43
:1004F0008A95E2F7CB01842B8C930F900F900F908D
:100500000F900F90CF91DF910895DF93CF9300D09C
:1005100000D0CDB7DEB78A8319828A81282F30E0D8
:100520003C832B838B819C8181309105D1F02B8181
:100530003C81223031052CF48B819C81009761F045
:100540001EC02B813C812230310581F08B819C8142
:100550008330910581F013C0E9E3F0E08081898365
:100560000EC0E6E3F0E08081898309C0E3E3F0E0B8
:100570008081898304C0E0E3F0E080818983898100
:100580000F900F900F900F90CF91DF910895DF9310
:10059000CF9300D000D0CDB7DEB78A8319828A818D
:1005A000282F30E03C832B838B819C818130910507
:1005B000D1F02B813C81223031052CF48B819C8140
:1005C000009761F01EC02B813C812230310581F003
:1005D0008B819C818330910581F013C0EAE3F0E0C8
:1005E000808189830EC0E7E3F0E08081898309C0C0
:1005F000E4E3F0E08081898304C0E1E3F0E08081FE
:10060000898389810F900F900F900F90CF91DF9188
:100610000895DF93CF9300D000D00F92CDB7DEB70F
:100620008A836B8319828A81282F30E03D832C8353
:100630004C815D8141305105B1F18C819D818230C9
:10064000910534F42C813D812115310571F084C070
:100650004C815D814230510509F443C08C819D81FC
:100660008330910509F45BC077C0E9E3F0E0808155
:10067000482F50E08B81282F30E081E090E002C0CD
:10068000880F991F2A95E2F79A01282339238B8135
:10069000882F90E0A90102C0559547958A95E2F709
:1006A000CA01898359C0E6E3F0E08081482F50E019
:1006B0008B81282F30E081E090E002C0880F991FE5
:1006C0002A95E2F79A01282339238B81882F90E01D
:1006D000A90102C0559547958A95E2F7CA01898319
:1006E0003BC0E3E3F0E08081482F50E08B81282F6E
:1006F00030E081E090E002C0880F991F2A95E2F770
:100700009A01282339238B81882F90E0A90102C008
:10071000559547958A95E2F7CA0189831DC0E0E3A4
:10072000F0E08081482F50E08B81282F30E081E07D
:1007300090E002C0880F991F2A95E2F79A012823BA
:1007400039238B81882F90E0A90102C055954795E8
:100750008A95E2F7CA01898389810F900F900F90E3
:100760000F900F90CF91DF910895DF93CF9300D03A
:1007700000D00F92CDB7DEB78A836B8381E0898387
:100780008A81282F30E03D832C834C815D8141306C
:100790005105B1F18C819D818230910534F42C8119
:1007A0003D812115310571F084C04C815D8142305D
:1007B000510509F443C08C819D818330910509F472
:1007C0005BC077C0EAE3F0E08081482F50E08B8186
:1007D000282F30E081E090E002C0880F991F2A9511
:1007E000E2F79A01282339238B81882F90E0A90111
:1007F00002C0559547958A95E2F7CA01898359C089
:10080000E7E3F0E08081482F50E08B81282F30E033
:1008100081E090E002C0880F991F2A95E2F79A01C3
:10082000282339238B81882F90E0A90102C0559598
:1008300047958A95E2F7CA0189833BC0E4E3F0E07B
:100840008081482F50E08B81282F30E081E090E0BC
:1008500002C0880F991F2A95E2F79A0128233923AD
:100860008B81882F90E0A90102C0559547958A9504
:10087000E2F7CA0189831DC0E1E3F0E08081482FDF
:1008800050E08B81282F30E081E090E002C0880F9B
:10089000991F2A95E2F79A01282339238B81882F03
:1008A00090E0A90102C0559547958A95E2F7CA01E3
:1008B000898389810F900F900F900F900F90CF91A7
:1008C000DF910895DF93CF9300D0CDB7DEB7898352
:1008D0006A8389810E94170589816A810E948C043C
:1008E0000F900F90CF91DF910895DF93CF93CDB705
:1008F000DEB780E00E945A0581E00E945A0582E03E
:100900000E945A0583E00E945A0580E293E00E940B
:100910007205CF91DF910895DF93CF9300D000D07F
:10092000CDB7DEB789836A838981282F30E03C8385
:100930002B838B819C8181309105D9F02B813C8167
:10094000223031052CF48B819C81009761F022C00C
:100950002B813C812230310591F08B819C81833049
:10096000910599F017C081E060E04A810E940F0173
:1009700011C081E061E04A810E940F010BC081E05B
:1009800062E04A810E940F0105C081E063E04A8174
:100990000E940F010F900F900F900F90CF91DF9159
:1009A0000895DF93CF9300D000D0CDB7DEB78A8310
:1009B00019828A81282F30E03C832B838B819C8194
:1009C00081309105D9F02B813C81223031052CF406
:1009D0008B819C81009761F022C02B813C81223069
:1009E000310591F08B819C818330910599F017C07E
:1009F00081E060E00E940903898311C081E061E029
:100A00000E94090389830BC081E062E00E94090310
:100A1000898305C081E063E00E940903898389819D
:100A20000F900F900F900F90CF91DF910895DF936B
:100A3000CF9300D00F92CDB7DEB789838981282F5D
:100A400030E03B832A838A819B8181309105D9F0F4
:100A50002A813B81223031052CF48A819B810097C9
:100A600061F022C02A813B812230310591F08A81D8
:100A70009B818330910599F017C081E060E041E0EF
:100A80000E94CA0111C081E061E041E00E94CA01F8
:100A90000BC081E062E041E00E94CA0105C081E034
:100AA00063E041E00E94CA010F900F900F90CF9138
:100AB000DF910895DF93CF930F92CDB7DEB789838F
:100AC00089810E94D104882329F4898161E00E94F0
:100AD0008C0404C0898160E00E948C040F90CF9147
:100AE000DF910895DF93CF9300D000D000D0CDB731
:100AF000DEB79E838D831C821B8212C01A821982EC
:100B000005C089819A8101969A83898389819A8116
:100B100089379105B0F38B819C8101969C838B83EF
:100B20002B813C818D819E818217930738F7269611
:100B30000FB6F894DEBF0FBECDBFCF91DF91089501
:040B4000F894FFCF57
:00000001FF
